:020000021000EC
:10E0000045C000006AC0000068C0000066C0000093
:10E0100064C0000062C0000060C000005EC000007C
:10E020005CC000005AC0000058C0000056C000008C
:10E0300054C0000005C4000050C000004EC00000E5
:10E040004CC000004AC0000048C0000046C00000AC
:10E0500044C0000042C0000040C000003EC00000BC
:10E060003CC000003AC0000038C0000036C00000CC
:10E0700034C0000032C0000030C000002EC00000DC
:10E080002CC000002AC0000028C0000014BE88E197
:10E090000FB6F89480936000109260000FBE1124B8
:10E0A0001FBECFEFD0E4DEBFCDBF11E0A0E0B1E0F6
:10E0B000E2E3F8EF01E00BBF02C007900D92A63B30
:10E0C000B107D9F717E0A6EBB1E001C01D92AF3060
:10E0D000B107E1F703D00C9417FC92CF81E00E94C6
:10E0E00090F918D0F4D6789483E090E09093A70646
:10E0F0008093A606C9D300D080E091E0EDB7FEB7CB
:10E100009283818320D40F900F90EDD699D20E94F4
:10E1100079F9FCCFCF93DF937ED380EC98EAA1E02E
:10E12000BAE58093A0069093A106A093A206B093AF
:10E13000A3066CD6CDEBD1E08CE390E0BE0126D6F1
:10E140008CE390E0BE0122D6DF91CF910895CF936A
:10E15000DF936091C9017091CA01C4E7D6E0FE0166
:10E1600086E06830780769F42081318142815381EB
:10E170008091D9019091DA01A091DB01B091DC018D
:10E180000FC06830710591F4208131814281538143
:10E190008091D7019091D801A091D901B091DA0175
:10E1A000281739074A075B0709F47AC03A9686E0D0
:10E1B000E63AF807A9F620E030E0522F432F888195
:10E1C0009981AA81BB810097A105B10509F061C0C1
:10E1D00086E06830780759F5A3ECB1E0C901FC018D
:10E1E000EE0FFF1F23E0880F991F2A95E1F7E80F34
:10E1F000F91FE259F94F86E09D9191938150E1F723
:10E20000852F942FFC01EE0FFF1FA3E0880F991FAD
:10E21000AA95E1F7E80FF91FE259F94F8091D9016A
:10E220009091DA01A091DB01B091DC012DC0683042
:10E230007105B1F5A3ECB1E0C901FC01EE0FFF1FC0
:10E2400063E0880F991F6A95E1F7E80FF91FE2591B
:10E25000F94F86E09D9191938150E1F7852F942F9E
:10E26000FC01EE0FFF1F23E0880F991F2A95E1F7AD
:10E27000E80FF91FE259F94F8091D7019091D80129
:10E28000A091D901B091DA0186839783A087B187E5
:10E2900007C02F5F3F4F2A962530310509F08DCFFB
:10E2A000DF91CF910895E4E7F6E0A0E0208131818D
:10E2B00042815381261737074807590721F0AF5F7E
:10E2C0003A96A53099F78A2F0895EF92FF920F930F
:10E2D0001F93CF93DF938C01CB01BA01E4DF85302C
:10E2E000F1F0282F30E0F901EE0FFF1F43E0220F7D
:10E2F000331F4A95E1F7E20FF31FE259F94FE02E81
:10E30000E7017E01F12EE701A9E0B1E08191899357
:10E310008D918D8331E0AF30B307C1F70EC0A02FD0
:10E32000B12FE9E0F1E08FEF8D93919115969C93D9
:10E33000159791E0EF30F907B9F7DF91CF911F9171
:10E340000F91FF90EF900895EF92FF920F931F931C
:10E35000CF93DF93CBECD1E08091CB019091CC01B6
:10E3600021E08030920709F090C08091CD0190911A
:10E37000CE018830910509F088C08091CF018630A8
:10E3800009F083C08091D001843009F07EC02091D3
:10E39000E3013091E4014091E5015091E601809163
:10E3A000A0069091A106A091A206B091A3062817FD
:10E3B00039074A075B0709F068C08091D101909145
:10E3C000D201A1E080309A0709F05AC0C0DE409126
:10E3D000D9015091DA016091DB017091DC01CE012D
:10E3E0000E9773DF88E096E09093CA018093C9018D
:10E3F000E090D901F090DA010091DB011091DC018D
:10E40000C801B70150DF853009F1282F30E0F9014C
:10E41000EE0FFF1F63E0220F331F6A95E1F7E20F53
:10E42000F31FE259F94F89E091E0AE01485F5F4F79
:10E430002191DA011A962C93DC012D91CD01DA019C
:10E440002D93AD01B1E08F309B0791F780E092E012
:10E450009F838E83E88EF98E0A8F1B8F8091A00692
:10E460009091A106A091A206B091A3068E879F87E6
:10E47000A88BB98B8CE390E06DEB71E087D405C07D
:10E4800022E08030920709F462DEDF91CF911F9184
:10E490000F91FF90EF900895EF92FF920F931F93CB
:10E4A000CF93DF938C01EB01FC0110C0908181813F
:10E4B0003296F92EEE24D701A80FB11DCD01A0E0B0
:10E4C000B0E0280F391F4A1F5B1F2297C230D105C9
:10E4D00068F7FB01EE7FE00FF11F60FF08C090813D
:10E4E00080E0A0E0B0E0280F391F4A1F5B1FDA016F
:10E4F000C901A070B0709A0144275527280F391F11
:10E500004A1F5B1FDA01C901A070B0709A0144274D
:10E510005527280F391F4A1F5B1F20953095C901C9
:10E52000DF91CF911F910F91FF90EF900895CF92BF
:10E53000DF92EF92FF920F931F93CF93DF938C01A3
:10E540006A017B01C2DE88E090E0F801958784874C
:10E55000E8012E9680E490E09F838E8380E8888790
:10E560008091B6019091B70101969093B701809385
:10E57000B6019827892798279D838C8385E4868711
:10E580001982C88AD98AEA8AFB8A8091A00690916A
:10E59000A106A091A206B091A3068C879D87AE87A5
:10E5A000BF871B861A86CE0164E170E020E030E070
:10E5B000A90172DF9827892798279B878A87DF918F
:10E5C000CF911F910F91FF90EF90DF90CF90089522
:10E5D0006091D7017091D8018091D9019091DA01B1
:10E5E0004091DF015091E00154274527542783C50E
:10E5F0008091C9019091CA0126E08830920709F400
:10E60000A3CE88309105D9F42091DB013091DC0153
:10E610004091DD015091DE018091A0069091A1060C
:10E62000A091A206B091A306281739074A075B07F5
:10E6300031F48DDD8091D401813109F4C9CF089581
:10E6400080EB94E06DEB71E031D3009751F00497CB
:10E65000FC01E354FE4F11829093A5068093A4061B
:10E66000C7CF0895CF92DF92EF92FF920F931F933F
:10E67000DF93CF93CDB7DEB7AA970FB6F894DEBF7E
:10E680000FBECDBF6B017C018E01015F1F4F88E083
:10E6900096E09E878D87CE010196B701A60115DE13
:10E6A0008091A0069091A106A091A206B091A30628
:10E6B000F80186879787A08BB18BC08ED18EE28EB2
:10E6C000F38EA9E0B1E0FE0177968D9181931186DA
:10E6D00021E0AF30B207C9F780E091E0F801918303
:10E6E000808328E030E03383228326E0248324E003
:10E6F0002583978386838AE290E0BE016F5F7F4F18
:10E7000045D304E1C701B601CEDD853068F080E075
:10E7100090E000000196F7E280319F07D1F790DF8B
:10E72000015081F780E001C081E0AA960FB6F8940D
:10E73000DEBF0FBECDBFCF91DF911F910F91FF9034
:10E74000EF90DF90CF900895CF92DF92EF92FF92FB
:10E750000F931F93CF93DF936C01CB01FA01B901A3
:10E76000A801CDEBD1E0B2E2EB2EF12CEC0EFD1EB8
:10E770008E01025F1F4F9827892798279093E00109
:10E780008093DF019E2F8F2FF70193838283C60131
:10E79000089698278927982795838483C6014C96E5
:10E7A000982789279827F8019383828381E18187BD
:10E7B000CE01BDDEF70117821682F80162817381F6
:10E7C000762767277627685F7F4F8091CB0190E09F
:10E7D0008F709070880F991F880F991F681B790B95
:10E7E0009B01275F3F4F40E050E0CE014A9654DE48
:10E7F000982789279827F70197838683C6018A96E9
:10E80000BE01C4D2DF91CF911F910F91FF90EF9085
:10E81000DF90CF900895E1E8F0E080818D60808303
:10E82000109285001092840088E09DE39093890007
:10E8300080938800EFE6F0E0808182608083089515
:10E840001F920F920FB60F9211248F939F93809176
:10E85000B1019091B2011816190654F48091B101DA
:10E860009091B201885E93409093B2018093B10180
:10E870009F918F910F900FBE0F901F901895CB0115
:10E88000BA010895B90175C71092B9011092B80183
:10E8900059D181E08093BA0108958091B801909197
:10E8A000B901009779F08855994FFC011082809149
:10E8B000A60681FF03C088EA96E0F1D01092B90164
:10E8C0001092B80108951F93182F8091BA018823E0
:10E8D00019F18091A60680FF02C0812F3AD12091C4
:10E8E000A6063091A7062670307021153105A1F0DB
:10E8F0002091B8013091B901F901E855F94F108321
:10E900002F5F3F4F3093B9012093B8012B3331056E
:10E9100010F41A3009F4C1DF1F910895EF92FF92AD
:10E92000CF93DF93E82EE7017E01F92EE70101C0C6
:10E93000CADF209719F089918823D1F7DF91CF9111
:10E94000FF90EF900895AF92BF92CF92DF92EF9237
:10E95000FF920F931F93DF93CF93CDB7DEB76697E8
:10E960000FB6F894DEBF0FBECDBF9E012D5D3F4FA9
:10E97000F901019111919F01BB246E010894C11C02
:10E98000D11CF8018081882309F478C00F5F1F4FE4
:10E99000853209F06DC009C0BB0C8B2D880F880F24
:10E9A0008B0D70EDB72EB40EB80EF80141918F01AA
:10E9B000842F90E0C0978A30910570F3493609F1B1
:10E9C0004A3628F4433699F04436D9F61AC045370A
:10E9D00021F1483779F14337A1F662E0E62EF12CB8
:10E9E000E20EF31EF9018081918198DF08C052E0A8
:10E9F000E52EF12CE20EF31EF901808164DF970110
:10EA0000C0CF42E0E42EF12CE20EF31EF90180812A
:10EA10009181B6014AE050E018C092E0E92EF12C55
:10EA2000E20EF31EF90180819181B6014AE050E0C7
:10EA3000C6D60CC082E0E82EF12CE20EF31EF901DE
:10EA400080819181B60140E150E09AD6F6010190B3
:10EA50000020E9F73197AE2EAC1803C080E333DF16
:10EA6000A394AB14D8F3C60159DF9701BB2489CF17
:10EA70002D8B3E8B28DF2D893E8983CF66960FB67E
:10EA8000F894DEBF0FBECDBFCF91DF911F910F91E4
:10EA9000FF90EF90DF90CF90BF90AF900895CF920E
:10EAA000DF92EF92FF920F931F93CF93DF936C014E
:10EAB00080E590E040EC58EA61E078E8E0DE7B0138
:10EAC0008C016093E7067093E8068093E9069093C3
:10EAD000EA068091EA068F3F81F0C801B701E3DBC7
:10EAE000853020F40AC0219719F407C0C3E0D0E0B4
:10EAF000C801B701B7DD8130B1F7C7EED1E08CE3D3
:10EB00008093E70180E38093E8018EE38093E9013D
:10EB1000CE010396B6012DD609900020E9F7CE016B
:10EB2000885E914062E176EA42E052E09801870116
:10EB30000BDEDF91CF911F910F91FF90EF90DF904F
:10EB4000CF90089588E18093C10087E68093C40048
:10EB500008959091C00095FFFCCF8093C600089562
:10EB6000FC012C988AE38EBD0DB407FEFDCF08C0D2
:10EB70001EBC0DB407FEFDCF8EB581936150704071
:10EB800061157105A9F72C9A0895FC012C988AE764
:10EB90008EBD0DB407FEFDCF81918EBD61507040DA
:10EBA0000DB407FEFDCF61157105B1F72C9A0895DC
:10EBB0002C98962F9F71982B9EBD0DB407FEFDCF0C
:10EBC0001EBC0DB407FEFDCF67FF04C01EBC0DB414
:10EBD00007FEFDCF8EB52C9A08952C988EBD0DB4EE
:10EBE00007FEFDCF6EBD0DB407FEFDCF2C9A089534
:10EBF000FF920F931F93F62E082F0F710B3188F49D
:10EC0000182F10768091EB06181759F01093EB0629
:10EC10008FEB63E0E2DF612F6295669567708FE9A5
:10EC2000DCDF802F80646F2DD8DF1F910F91FF9064
:10EC300008950F931F93182F282F30E02F713070F5
:10EC40002B3131058CF4082F00768091EB060817E4
:10EC500059F00093EB068FEB63E0BFDF602F629506
:10EC6000669567708FE9B9DF80E0612FA1DF1F91A2
:10EC70000F9108951F93DF93CF930F92CDB7DEB717
:10EC8000982F162F84ED692F7983B2DF86ED612FDF
:10EC9000AFDF87ED7981672FABDF8AEECADF80FDBA
:10ECA000FCCF0F90CF91DF911F910895EF92FF92CB
:10ECB0000F931F93CF93DF938C017B018CE1B9DF1E
:10ECC00086FD05C089E3B5DF882309F455C080E0DF
:10ECD0006091EC068DDF6091ED0681E089DF8AE3CB
:10ECE00060E066DFC82FD0E0D093ED06C093EC065D
:10ECF0008AE360E05DDF382F20E0C22BD32BD09376
:10ED0000ED06C093EC068AE360E052DFC82FD0E046
:10ED10008AE360E04DDF382F20E0C22BD32B8AE35B
:10ED200060E046DF8AE360E043DF0C171D0708F46C
:10ED3000E801C701BE0114DF6091EC067091ED0699
:10ED4000CB0101972AE18030920730F08CE06FEF21
:10ED50004FDF8DE069E10BC061508CE049DF20910D
:10ED6000EC063091ED06215030408DE0632F40DFFE
:10ED70008EE960E432DF02C0C0E0D0E0CE01DF9176
:10ED8000CF911F910F91FF90EF900895EF92FF9216
:10ED90000F931F93CF93DF93EC018B0182E3E82E57
:10EDA000F12C8FE146DF83FF0CC08FE99FE00197D4
:10EDB000F1F700C000000894E108F108E114F10443
:10EDC00081F782E060E014DF83E06AE111DF86E032
:10EDD0006C2F0EDF9E012050364E87E0632F08DF38
:10EDE0008AE760E0FADEC801BE01CFDE8FE960E8A5
:10EDF000F4DE8FEB60E8F1DE8FE96CE0EEDEDF91B0
:10EE0000CF911F910F91FF90EF9008950F931F9353
:10EE1000CF93DF938FEF8093EB06249A2C9A2F9A4F
:10EE200084B1806B84B9269880E58CBD81E08DBD6E
:10EE300080E49DE0A3E0B0E000000197A109B109E2
:10EE4000D9F78FEF6FEFC9DE80E49DE0A3E0B0E07B
:10EE500000000197A109B109D9F7C0E0D0E001C0D5
:10EE600021968DE1E6DE80FD04C08DEFC83ED80717
:10EE7000B9F71092ED061092EC06CFE0D1E0888150
:10EE80006981B6DE2296E1E0CF32DE07C1F7CFE23C
:10EE9000D1E009E011E0F80161918F018991A8DECC
:10EEA000F1E0C533DF07B9F780E160E071E0E2DE51
:10EEB0008BE160EC9DDE8FE964E08FDE84E16AE740
:10EEC00074E3D8DEDF91CF911F910F91089551D255
:10EED00080E395E79093B2018093B1011092BC0159
:10EEE0001092BB010895AF92BF92CF92DF92EF9242
:10EEF000FF920F931F93DF93CF93CDB7DEB76A973F
:10EF00000FB6F894DEBF0FBECDBF8091BB019091CC
:10EF1000BC01009709F010D28CE390E040EC58EA75
:10EF200061E078E8ACDC6093EE067093EF068093C6
:10EF3000F0069093F1068DB79EB70A970FB6F89436
:10EF40009EBF0FBE8DBFEDB7FEB7319685E391E052
:10EF5000ADB7BEB712969C938E9311978091EE0633
:10EF6000828313828091EF06848315828091F0065C
:10EF7000868317828091F10680871186E4DCA09059
:10EF8000EE06B090EF06C090F006D090F106EDB717
:10EF9000FEB73A960FB6F894FEBF0FBEEDBF03E082
:10EFA00010E003C00150104031F0C601B5015ADB3A
:10EFB0008130C1F70DC000D08BE491E0ADB7BEB792
:10EFC00012969C938E931197BEDC0F900F90B4D144
:10EFD0007E010894E11CF11CC70162E571E0C9D310
:10EFE0008E01065F1F4FC80160E470E040E128E534
:10EFF00031E048DC00D000D080E691E0EDB7FEB70C
:10F0000092838183148303839EDC80E091E090935C
:10F01000E8018093E7010F900F900F900F9089EE19
:10F0200091E0B801A6D3D8010D900020E9F7CD01F9
:10F03000801B910B87519E4FB7019BD3F801019024
:10F040000020E9F7CF010197801B910BF701019098
:10F050000020E9F73197EE19FF098E0F9F1F0496E4
:10F0600065E574EA45E450E0960185016DDB80EDCD
:10F0700097E09093B2018093B10181E090E090938A
:10F08000BC018093BB016A960FB6F894DEBF0FBE39
:10F09000CDBFCF91DF911F910F91FF90EF90DF9047
:10F0A000CF90BF90AF900895EF92FF920F931F9370
:10F0B0007B018C01F90180E094E091838083709161
:10F0C000BB0160E08091BC0190E0860F971F9383A5
:10F0D000828384E090E065E574EA9801870134DB7F
:10F0E00080ED97E09093B2018093B1011F910F9151
:10F0F000FF90EF9008958F929F92AF92BF92CF9220
:10F10000DF92EF92FF920F931F93CF93DF936B01E8
:10F110007C014A018091BB019091BC01009709F4E8
:10F12000DBC02091E7013091E80132272327322705
:10F1300023303105F1F02530310509F0BAC000D097
:10F1400000D08AE691E0ADB7BEB712969C938E933D
:10F1500011978BEE91E014969C938E931397F3DBAB
:10F160001092BC011092BB010F900F900F900F9066
:10F170009EC02091CE01C22FD0E0A0973091CD014A
:10F1800020E0C20FD31F2091E9013091EA0132271C
:10F19000232732272817390709F054C08BEEA82EF1
:10F1A00081E0B82E80E000E010E006C0F50181911A
:10F1B0005F0165D10F5F1F4F0C171D071CF48823DB
:10F1C000A9F302C0882311F100D000D000D0EDB720
:10F1D000FEB7319623E731E0ADB7BEB712963C9348
:10F1E0002E9311978283138201501040158304835C
:10F1F000AADB1092BC011092BB01EDB7FEB73696A8
:10F200000FB6F894FEBF0FBEEDBF66C000D08FE70B
:10F2100091E0ADB7BEB712969C938E93119793DB96
:10F220000F900F90C701B601A40127EE31E03CDF3B
:10F230008091BB019091BC0101969093BC01809399
:10F24000BB0121C000D000D000D0EDB7FEB7319691
:10F2500041E851E0ADB7BEB712965C934E9311975B
:10F2600033832283958384836EDBEDB7FEB73696B6
:10F270000FB6F894FEBF0FBEEDBFC701B601A401E3
:10F2800027EE31E011DFF2E0C030DF0729F100D0D6
:10F2900085E991E0ADB7BEB712969C938E93119716
:10F2A00052DB1092BC011092BB010F900F9044D022
:10F2B00013C000D000D08CE991E0EDB7FEB7928387
:10F2C0008183348323833FDB1092BC011092BB0106
:10F2D0000F900F900F900F90DF91CF911F910F9192
:10F2E000FF90EF90DF90CF90BF90AF909F908F9066
:10F2F00008958091B1019091B201181619067CF021
:10F300001092BC011092BB0100D08AEA91E0EDB7E7
:10F31000FEB79283818317DB0F900F900DC0089585
:10F3200095B7292F2160813019F425BF926002C062
:10F3300025BF9D7F95BF0895F8948091C00085FFFB
:10F34000FCCF1092C10080E48093C00010926F0047
:10F350008FEF86BB109281001CBC1DBC80E0E0DFFB
:10F360000C94000008958A3310F480530895875355
:10F37000089581E08093B5010895FF920F931F9344
:10F38000522F603020EE720721E0820720E09207C2
:10F3900008F06CC0F999FECF072F182F292F3327BB
:10F3A000D8010091B3011091B401EFEF0F3F1E0798
:10F3B00019F10A171B0721F4209108072130E1F405
:10F3C00020E030E0322F212F102F0027E5E0FE2E25
:10F3D000F80120935B00F0925700E89521E103C00B
:10F3E00020935700E89507B606FCFACF2FEF3FEFC2
:10F3F0003093B4012093B30120910807222341F0F8
:10F40000213009F035C081E180935700E89532C082
:10F410002091F206222371F12091B3013091B401C1
:10F42000EFEF2F3F3E0799F423E0FB0180935B0051
:10F4300020935700E89521E103C020935700E895F9
:10F4400007B606FCFACFB093B401A093B301F52F31
:10F45000E0E09F01240F311D41E00901FB01809391
:10F460005B0040935700E895112404C087E003C077
:10F4700086E001C080E01F910F91FF900895FF92F8
:10F480000F931F93CF93DF9390E06BD19091B501D1
:10F490009130C1F19B3009F4DEC0803330F0282F69
:10F4A0002A53273010F0873420F081E08093B50193
:10F4B00052C1963009F477C0973088F49330C9F17F
:10F4C000943030F49130F1F0923009F03FC12AC00D
:10F4D000943009F43FC0953009F038C15DC09930CF
:10F4E00009F49CC09A3038F4973009F46CC0983015
:10F4F00009F02CC174C09A3009F499C09B3009F00E
:10F5000025C1A9C08A3309F023C183E0809309078C
:10F510001092F6061092F5061092F4061092F30679
:10F5200082E082C020DF8295807F8093F20683E0B4
:10F530007BC019DF9091F206980F9093F20690939A
:10F540000707913110F484E06FC081E08093B5012A
:10F5500082E001C108DF2091F5063091F60604E053
:10F56000220F331F0A95E1F7280F311D3093F6065D
:10F570002093F5068091090780FD05C0909107074B
:10F58000920F90930707982F915090930907882323
:10F5900009F0DEC085E048C0E6DE8295807F80937A
:10F5A000080786E041C0DFDE90910807980F90932E
:10F5B000080780910707890F809307078091F2065B
:10F5C000882351F127C0CFDEE091F306F091F406D5
:10F5D000E950F94F8295807F808388E025C0C091F3
:10F5E000F306D091F406BFDEFE01E950F94F908199
:10F5F000980F908380910707890F809307072196C2
:10F60000D093F406C093F3068091F20690E0C817F9
:10F61000D90710F487E008C089E006C0A4DE82950F
:10F62000807F80930E078AE08093B50191C09BDEB6
:10F6300090910E07980F90930E0780910707890FFE
:10F6400080930707882329F081E08093B50184E047
:10F6500082C08BE0E9CF91E09093B5018A3019F038
:10F660008D3009F077C0FFB6F8948091080781309B
:10F67000D1F1813038F0823009F44BC0833009F089
:10F6800062C05FC0C7EFD6E000E010E080E022C0BB
:10F690006091F5067091F60680E090E020910A07EF
:10F6A00030910B0740910C0750910D07620F731FAB
:10F6B000841F951F4881298160DE0E5F1F4F2091B6
:10F6C000F5063091F6062E5F3F4F3093F6062093F5
:10F6D000F50622962091F20630E002171307A4F5F2
:10F6E0008823B1F231C06091F5067091F60680E092
:10F6F00090E020910A0730910B0740910C07509140
:10F700000D07620F731F841F951F40E020E035DE58
:10F710001BC09091F70680E02091F806820F911DA2
:10F72000A0E0B0E014E0880F991FAA1FBB1F1A9534
:10F73000D1F780930A0790930B07A0930C07B0931F
:10F740000D0780E001C086E0FFBE05C083E003C076
:10F7500080E001C085E0DF91CF911F910F91FF9074
:10F7600008959111089581568A5108F48052855860
:10F770000895FB01DC0101900D920020E1F708954E
:10F78000FB019F01E8944230BCF04532ACF44A30B2
:10F7900029F497FB1EF4909581959F4F642F77274E
:10F7A00032D0805D8A330CF0895D8193CB01009764
:10F7B000A9F716F45DE251931082C90114C0FB0150
:10F7C0009F0142306CF045325CF4642F77271BD0E8
:10F7D000805D8A330CF0895D8193CB010097A9F796
:10F7E0001082C90100C0DC01FC01672F71917723F1
:10F7F000E1F7329704C07C916D9370836291AE17EC
:10F80000BF07C8F30895AA1BBB1B51E107C0AA1F7D
:10F81000BB1FA617B70710F0A61BB70B881F991FB1
:10F820005A95A9F780959095BC01CD010895F8945B
:02F83000FFCF08
:10F832000A0D426F6F740A0D000022F9010C650473
:10F8420000051A06FF071F080009000AFF0B19C16D
:10F8520000C00DC232CAEECB05C412C612C70CE4F8
:10F86200E5E2E3E0E1537672202533692E25336920
:10F872002E2533692E2533690D0A005376723F0D0A
:10F882000A006F63746574006176722E6865780091
:10F8920046696C652025730D0A0045727220257336
:10F8A2000D0A004572722025694025690D0A002E55
:10F8B20000426C6F636B2025692C202569206578D6
:10F8C200702E0D0A00646F6E650D0A00457272207B
:10F8D200547970652025690D0A00546F75740D0AFC
:06F8E200003075FFFF017C
:040000031000E00009
:00000001FF
