:020000021000EC
:10E0000071C0000096C0000094C0000092C00000E3
:10E0100090C000008EC000008CC000008AC00000CC
:10E0200088C0000086C0000084C0000082C00000DC
:10E0300080C000007EC000007CC000007AC00000EC
:10E0400078C0000042C4000074C0000072C000002C
:10E0500070C000006EC000006CC000006AC000000C
:10E0600068C0000066C0000064C0000062C000001C
:10E0700060C000005EC000005CC000005AC000002C
:10E0800058C0000056C0000054C0000052C000003C
:10E0900050C000004EC000004CC000004AC000004C
:10E0A00048C0000046C0000044C0000042C000005C
:10E0B00040C000003EC000003CC000003AC000006C
:10E0C00038C0000036C0000034C0000032C000007C
:10E0D00030C000002EC000002CC000002AC000008C
:10E0E00028C0000014BE88E10FB6F8948093600049
:10E0F000109260000FBE11241FBECFEFD1E2DEBF31
:10E10000CDBF12E0A0E0B2E0E0EFF9EF01E00BBF1D
:10E1100002C007900D92A63BB107D9F718E0A6EB15
:10E12000B2E001C01D92AF30B107E1F703D00C940B
:10E13000F6FC66CF81E00E9467FA18D09FD77894EA
:10E1400083E090E09093A7078093A60774D400D053
:10E1500080E092E0EDB7FEB792838183CBD40F903D
:10E160000F9098D7B2D20E9450FAFCCF0F931F9312
:10E17000CF93DF9395D38EE190E040EC58EA64E6CC
:10E180007FE6C2D36093A0077093A1078093A20794
:10E190009093A30788E190E04CD48F3F69F009E0A9
:10E1A00012E0C8E1D0E0CE0144D4F80181938F01A0
:10E1B0002196CE31D105B9F700D78CE390E06DEB15
:10E1C00072E0BBD68CE390E06DEB72E0B6D6DF91E7
:10E1D000CF911F910F910895CF93DF936091C90262
:10E1E0007091CA02C4E7D7E0FE0186E06830780784
:10E1F00069F420813181428153818091D9029091CB
:10E20000DA02A091DB02B091DC020FC06830710528
:10E2100091F420813181428153818091D702909184
:10E22000D802A091D902B091DA02281739074A071B
:10E230005B0709F47AC03A9687E0E63AF807A9F650
:10E2400020E030E0522F432F88819981AA81BB8141
:10E250000097A105B10509F061C086E06830780734
:10E2600059F5A3ECB2E0C901FC01EE0FFF1F23E05A
:10E27000880F991F2A95E1F7E80FF91FE259F84F27
:10E2800086E09D9191938150E1F7852F942FFC01B9
:10E29000EE0FFF1FA3E0880F991FAA95E1F7E80F83
:10E2A000F91FE259F84F8091D9029091DA02A091BA
:10E2B000DB02B091DC022DC068307105B1F5A3EC32
:10E2C000B2E0C901FC01EE0FFF1F63E0880F991F48
:10E2D0006A95E1F7E80FF91FE259F84F86E09D9142
:10E2E00091938150E1F7852F942FFC01EE0FFF1FD2
:10E2F00023E0880F991F2A95E1F7E80FF91FE259EB
:10E30000F84F8091D7029091D802A091D902B09194
:10E31000DA0286839783A087B18707C02F5F3F4FBC
:10E320002A962530310509F08DCFDF91CF910895E0
:10E33000E4E7F7E0A0E02081318142815381261794
:10E3400037074807590721F0AF5F3A96A53099F78C
:10E350008A2F0895EF92FF920F931F93CF93DF932D
:10E360008C01CB01BA01E4DF8530F1F0282F30E0D9
:10E37000F901EE0FFF1F43E0220F331F4A95E1F72B
:10E38000E20FF31FE259F84FE02EE7017E01F12E74
:10E39000E701A9E0B2E0819189938D918D8332E00C
:10E3A000AF30B307C1F70EC0A02FB12FE9E0F2E004
:10E3B0008FEF8D93919115969C93159792E0EF3086
:10E3C000F907B9F7DF91CF911F910F91FF90EF906F
:10E3D0000895EF92FF920F931F93CF93DF93CBECAF
:10E3E000D2E08091CB029091CC0221E08030920764
:10E3F00009F090C08091CD029091CE0288309105B5
:10E4000009F088C08091CF02863009F083C08091E6
:10E41000D002843009F07EC02091E3023091E40202
:10E420004091E5025091E6028091A0079091A107EA
:10E43000A091A207B091A307281739074A075B07E5
:10E4400009F068C08091D1029091D202A1E08030A1
:10E450009A0709F05AC0C0DE4091D9025091DA0201
:10E460006091DB027091DC02CE010E9773DF88E0D1
:10E4700096E09093CA028093C902E090D902F0908E
:10E48000DA020091DB021091DC02C801B70150DF13
:10E49000853009F1282F30E0F901EE0FFF1F63E00E
:10E4A000220F331F6A95E1F7E20FF31FE259F84F8D
:10E4B00089E092E0AE01485F5F4F2191DA011A9640
:10E4C0002C93DC012D91CD01DA012D93AD01B2E049
:10E4D0008F309B0791F780E092E09F838E83E88ED8
:10E4E000F98E0A8F1B8F8091A0079091A107A091B0
:10E4F000A207B091A3078E879F87A88BB98B8CE367
:10E5000090E06DEB72E019D505C022E080309207F3
:10E5100009F462DEDF91CF911F910F91FF90EF9090
:10E520000895EF92FF920F931F93CF93DF938C0187
:10E53000EB01FC0110C0908181813296F92EEE240E
:10E54000D701A80FB11DCD01A0E0B0E0280F391F01
:10E550004A1F5B1F2297C230D10568F7FB01EE7F8F
:10E56000E00FF11F60FF08C0908180E0A0E0B0E004
:10E57000280F391F4A1F5B1FDA01C901A070B07054
:10E580009A0144275527280F391F4A1F5B1FDA01BC
:10E59000C901A070B0709A0144275527280F391F70
:10E5A0004A1F5B1F20953095C901DF91CF911F91C4
:10E5B0000F91FF90EF900895CF92DF92EF92FF922C
:10E5C0000F931F93CF93DF938C016A017B01C2DE0F
:10E5D00088E090E0F80195878487E8012E9680E432
:10E5E00090E09F838E8380E888878091B602909127
:10E5F000B70201969093B7028093B60298278927B5
:10E6000098279D838C8385E486871982C88AD98A56
:10E61000EA8AFB8A8091A0079091A107A091A207A6
:10E62000B091A3078C879D87AE87BF871B861A860C
:10E63000CE0164E170E020E030E0A90172DF9827AC
:10E64000892798279B878A87DF91CF911F910F9108
:10E65000FF90EF90DF90CF9008956091D702709176
:10E66000D8028091D9029091DA024091DF02509154
:10E67000E00254274527542715C68091C90290917E
:10E68000CA0226E08830920709F4A3CE88309105AB
:10E69000D9F42091DB023091DC024091DD025091EF
:10E6A000DE028091A0079091A107A091A207B091EE
:10E6B000A307281739074A075B0731F48DDD8091DE
:10E6C000D402813109F4C9CF089580EB94E06DEB59
:10E6D00072E0C3D3009751F00497FC01E354FD4F5F
:10E6E00011829093A5078093A407C7CF0895CF9276
:10E6F000DF92EF92FF920F931F93DF93CF93CDB7EB
:10E70000DEB7AA970FB6F894DEBF0FBECDBF6B0180
:10E710007C018E01015F1F4F88E096E09E878D8708
:10E72000CE010196B701A60115DE8091A007909158
:10E73000A107A091A207B091A307F8018687978748
:10E74000A08BB18BC08ED18EE28EF38EA9E0B2E0A9
:10E75000FE0177968D918193118622E0AF30B2074A
:10E76000C9F780E091E0F8019183808328E030E0F0
:10E770003383228326E0248324E0258397838683C2
:10E780008AE290E0BE016F5F7F4FD7D304E1C701FB
:10E79000B601CEDD853068F080E090E000000196A3
:10E7A000F7E280319F07D1F790DF015081F780E0D9
:10E7B00001C081E0AA960FB6F894DEBF0FBECDBFB0
:10E7C000CF91DF911F910F91FF90EF90DF90CF904D
:10E7D0000895CF92DF92EF92FF920F931F93CF9302
:10E7E000DF936C01CB01FA01B901A801CDEBD2E0B6
:10E7F000B2E2EB2EF12CEC0EFD1E8E01025F1F4FDC
:10E800009827892798279093E0028093DF029E2F14
:10E810008F2FF70193838283C60108969827892753
:10E82000982795838483C6014C9698278927982733
:10E83000F8019383828381E18187CE01BDDEF701F8
:10E8400017821682F80162817381762767277627FF
:10E85000685F7F4F8091CB0290E08F709070880F3F
:10E86000991F880F991F681B790B9B01275F3F4FEA
:10E8700040E050E0CE014A9654DE98278927982739
:10E88000F70197838683C6018A96BE0156D3DF912E
:10E89000CF911F910F91FF90EF90DF90CF9008954F
:10E8A000E1E8F0E080818D60808310928500109215
:10E8B000840088E09DE39093890080938800EFE6D0
:10E8C000F0E080818260808308951F920F920FB6DE
:10E8D0000F9211248F939F938091B1029091B20275
:10E8E0001816190654F48091B1029091B202885E14
:10E8F00093409093B2028093B1029F918F910F90B9
:10E900000FBE0F901F901895AF92BF92CF92DF92DB
:10E91000EF92FF920F931F93DF93CF9300D000D01D
:10E9200000D0CDB7DEB75B01C82ED92E8E010F5FA8
:10E930001F4F85E0E82EF12CEC0EFD1EC6014D8325
:10E940005E830E94CAFCF80181938F010894C11C68
:10E95000D11C4D815E81EE15FF0581F789819A8179
:10E96000AB81BC818F3FFFEF9F07FFEFAF07FFEF4A
:10E97000BF0711F0AC015D01BA01C50126960FB6C3
:10E98000F894DEBF0FBECDBFCF91DF911F910F91E5
:10E99000FF90EF90DF90CF90BF90AF9008956F926F
:10E9A0007F928F929F92AF92BF92CF92DF92EF921F
:10E9B000FF920F931F93DF93CF930F92CDB7DEB7E4
:10E9C0007C016B014901982F092F1F2D66247724A4
:10E9D000A42EBB24C601860D971D4983DBD7F80101
:10E9E00081938F01982F915049819E3F48F408945C
:10E9F000611C711CC30101978A159B055CF302C061
:10EA00008F3F21F050E0461557051CF4C701B401B3
:10EA100087D70F90CF91DF911F910F91FF90EF90CB
:10EA2000DF90CF90BF90AF909F908F907F906F902E
:10EA30000895B0C708951092B9021092B80259D142
:10EA400081E08093BA0208958091B8029091B90252
:10EA5000009779F08855984FFC0110828091A607A5
:10EA600081FF03C088EA97E0F1D01092B9021092BA
:10EA7000B80208951F93182F8091BA02882319F1C4
:10EA80008091A60780FF02C0812F3AD12091A6076E
:10EA90003091A7072670307021153105A1F0209123
:10EAA000B8023091B902F901E855F84F10832F5F91
:10EAB0003F4F3093B9022093B8022B33310510F445
:10EAC0001A3009F4C1DF1F910895EF92FF92CF939E
:10EAD000DF93E82EE7017E01F92EE70101C0CADFCE
:10EAE000209719F089918823D1F7DF91CF91FF907A
:10EAF000EF900895AF92BF92CF92DF92EF92FF9284
:10EB00000F931F93DF93CF93CDB7DEB766970FB602
:10EB1000F894DEBF0FBECDBF9E012D5D3F4FF901C2
:10EB2000019111919F01BB246E010894C11CD11C5D
:10EB3000F8018081882309F478C00F5F1F4F853268
:10EB400009F06DC009C0BB0C8B2D880F880F8B0D91
:10EB500070EDB72EB40EB80EF80141918F01842FDD
:10EB600090E0C0978A30910570F3493609F14A3632
:10EB700028F4433699F04436D9F61AC0453721F1C6
:10EB8000483779F14337A1F662E0E62EF12CE20E28
:10EB9000F31EF9018081918198DF08C052E0E52ED3
:10EBA000F12CE20EF31EF901808164DF9701C0CFE2
:10EBB00042E0E42EF12CE20EF31EF90180819181F6
:10EBC000B6014AE050E018C092E0E92EF12CE20EC6
:10EBD000F31EF90180819181B6014AE050E0C6D66A
:10EBE0000CC082E0E82EF12CE20EF31EF9018081C8
:10EBF0009181B60140E150E09AD6F60101900020E3
:10EC0000E9F73197AE2EAC1803C080E333DFA3944D
:10EC1000AB14D8F3C60159DF9701BB2489CF2D8BE4
:10EC20003E8B28DF2D893E8983CF66960FB6F894F8
:10EC3000DEBF0FBECDBFCF91DF911F910F91FF902F
:10EC4000EF90DF90CF90BF90AF900895CF92DF927A
:10EC5000EF92FF920F931F93CF93DF936C0180E5A8
:10EC600090E040EC58EA64E67AE04EDE7B018C01ED
:10EC70006093E7077093E8078093E9079093EA07AA
:10EC80008091EA078F3F81F0C801B70151DB8530E1
:10EC900020F40AC0219719F407C0C3E0D0E0C801EE
:10ECA000B70125DD8130B1F7C7EED2E08CE3809368
:10ECB000E70280E38093E8028EE38093E902CE01CD
:10ECC0000396B6012DD609900020E9F7CE01885EA3
:10ECD000924062E176EA42E052E09801870179DDF4
:10ECE000DF91CF911F910F91FF90EF90DF90CF9028
:10ECF000089588E18093D10087E68093D400089539
:10ED00009091D00095FFFCCF8093D6000895FC0130
:10ED100028988AE38EBD0DB407FEFDCF08C01EBC47
:10ED20000DB407FEFDCF8EB5819361507040611523
:10ED30007105A9F7289A0895FC0128988AE78EBDE5
:10ED40000DB407FEFDCF81918EBD615070400DB4B2
:10ED500007FEFDCF61157105B1F7289A089528982F
:10ED6000962F9F71982B9EBD0DB407FEFDCF1EBC44
:10ED70000DB407FEFDCF67FF04C01EBC0DB407FE37
:10ED8000FDCF8EB5289A089528988EBD0DB407FE44
:10ED9000FDCF6EBD0DB407FEFDCF289A0895FF92FA
:10EDA0000F931F93F62E082F0F710B3188F4182F35
:10EDB00010768091EB07181759F01093EB078FEB43
:10EDC00063E0E2DF612F6295669567708FE9DCDFB3
:10EDD000802F80646F2DD8DF1F910F91FF900895D1
:10EDE0000F931F93182F282F30E02F7130702B3185
:10EDF00031058CF4082F00768091EB07081759F045
:10EE00000093EB078FEB63E0BFDF602F62956695A1
:10EE100067708FE9B9DF80E0612FA1DF1F910F914B
:10EE200008951F93DF93CF930F92CDB7DEB7982F3E
:10EE3000162F84ED692F7983B2DF86ED612FAFDF66
:10EE400087ED7981672FABDF8AEECADF80FDFCCFCB
:10EE50000F90CF91DF911F910895EF92FF920F9342
:10EE60001F93CF93DF938C017B018CE1B9DF86FD8B
:10EE700005C089E3B5DF882309F455C080E06091BF
:10EE8000EC078DDF6091ED0781E089DF8AE360E0C8
:10EE900066DFC82FD0E0D093ED07C093EC078AE37C
:10EEA00060E05DDF382F20E0C22BD32BD093ED073D
:10EEB000C093EC078AE360E052DFC82FD0E08AE31A
:10EEC00060E04DDF382F20E0C22BD32B8AE360E0D7
:10EED00046DF8AE360E043DF0C171D0708F4E80112
:10EEE000C701BE0114DF6091EC077091ED07CB0103
:10EEF00001972AE18030920730F08CE06FEF4FDF0E
:10EF00008DE069E10BC061508CE049DF2091EC0796
:10EF10003091ED07215030408DE0632F40DF8EE9C6
:10EF200060E432DF02C0C0E0D0E0CE01DF91CF91DB
:10EF30001F910F91FF90EF900895EF92FF920F9322
:10EF40001F93CF93DF93EC018B0182E3E82EF12C2A
:10EF50008FE146DF83FF0CC08FE99FE00197F1F757
:10EF600000C000000894E108F108E114F10481F701
:10EF700082E060E014DF83E06AE111DF86E06C2F5D
:10EF80000EDF9E012050364E87E0632F08DF8AE7B0
:10EF900060E0FADEC801BE01CFDE8FE960E8F4DE92
:10EFA0008FEB60E8F1DE8FE96CE0EEDEDF91CF9170
:10EFB0001F910F91FF90EF9008950F931F93CF93A0
:10EFC000DF938FEF8093EB07209A289A299A84B1D8
:10EFD000876084B9239880E58CBD81E08DBD80E495
:10EFE0009DE0A3E0B0E000000197A109B109D9F7C5
:10EFF0008FEF6FEFC9DE80E49DE0A3E0B0E000009A
:10F000000197A109B109D9F7C0E0D0E001C021966C
:10F010008DE1E6DE80FD04C08DEFC83ED807B9F76C
:10F020001092ED071092EC07CFE0D2E08881698161
:10F03000B6DE2296E2E0CF32DE07C1F7CFE2D2E0C1
:10F0400009E012E0F80161918F018991A8DEF2E0F8
:10F05000C533DF07B9F780E160E071E0E2DE8BE104
:10F0600060EC9DDE8FE964E08FDE84E16AE774E3A3
:10F07000D8DEDF91CF911F910F91089551D280E397
:10F0800095E79093B2028093B1021092BC02109265
:10F09000BB020895AF92BF92CF92DF92EF92FF92A0
:10F0A0000F931F93DF93CF93CDB7DEB76A970FB659
:10F0B000F894DEBF0FBECDBF8091BB029091BC0221
:10F0C000009709F010D28CE390E040EC58EA64E637
:10F0D0007AE01ADC6093EE077093EF078093F007F5
:10F0E0009093F1078DB79EB70A970FB6F8949EBF1D
:10F0F0000FBE8DBFEDB7FEB7319685E392E0ADB799
:10F10000BEB712969C938E9311978091EE078283DF
:10F1100013828091EF07848315828091F0078683A4
:10F1200017828091F10780871186E4DCA090EE07BA
:10F13000B090EF07C090F007D090F107EDB7FEB7A1
:10F140003A960FB6F894FEBF0FBEEDBF03E010E095
:10F1500003C00150104031F0C601B501C8DA81305A
:10F16000C1F70DC000D08BE492E0ADB7BEB71296E8
:10F170009C938E931197BEDC0F900F90B4D17E01BB
:10F180000894E11CF11CC70162E572E0C9D38E014D
:10F19000065F1F4FC80160E470E040E128E532E0FF
:10F1A000FEDB00D000D080E692E0EDB7FEB79283A0
:10F1B0008183148303839EDC80E091E09093E802D6
:10F1C0008093E7020F900F900F900F9089EE92E0DE
:10F1D000B801A6D3D8010D900020E9F7CD01801B1E
:10F1E000910B87519D4FB7019BD3F80101900020EF
:10F1F000E9F7CF010197801B910BF70101900020E7
:10F20000E9F73197EE19FF098E0F9F1F049665E508
:10F2100074EA45E450E096018501DBDA80ED97E081
:10F220009093B2028093B10281E090E09093BC028F
:10F230008093BB026A960FB6F894DEBF0FBECDBFB7
:10F24000CF91DF911F910F91FF90EF90DF90CF90C2
:10F25000BF90AF900895EF92FF920F931F937B01A1
:10F260008C01F90180E094E0918380837091BB026E
:10F2700060E08091BC0290E0860F971F93838283A9
:10F2800084E090E065E574EA98018701A2DA80EDF8
:10F2900097E09093B2028093B1021F910F91FF907B
:10F2A000EF9008958F929F92AF92BF92CF92DF928C
:10F2B000EF92FF920F931F93CF93DF936B017C012B
:10F2C0004A018091BB029091BC02009709F4DBC017
:10F2D0002091E7023091E80232272327322723309A
:10F2E0003105F1F02530310509F0BAC000D000D069
:10F2F0008AE692E0ADB7BEB712969C938E931197B3
:10F300008BEE92E014969C938E931397F3DB1092FE
:10F31000BC021092BB020F900F900F900F909EC0F6
:10F320002091CE02C22FD0E0A0973091CD0220E0F4
:10F33000C20FD31F2091E9023091EA02322723271E
:10F3400032272817390709F054C08BEEA82E82E027
:10F35000B82E80E000E010E006C0F50181915F0169
:10F3600065D10F5F1F4F0C171D071CF48823A9F3ED
:10F3700002C0882311F100D000D000D0EDB7FEB755
:10F38000319623E732E0ADB7BEB712963C932E9389
:10F390001197828313820150104015830483AADBE6
:10F3A0001092BC021092BB02EDB7FEB736960FB6B4
:10F3B000F894FEBF0FBEEDBF66C000D08FE792E0AD
:10F3C000ADB7BEB712969C938E93119793DB0F90B7
:10F3D0000F90C701B601A40127EE32E03CDF809117
:10F3E000BB029091BC0201969093BC028093BB0239
:10F3F00021C000D000D000D0EDB7FEB7319641E873
:10F4000052E0ADB7BEB712965C934E93119733831B
:10F410002283958384836EDBEDB7FEB736960FB6F5
:10F42000F894FEBF0FBEEDBFC701B601A40127EEE1
:10F4300032E011DFF2E0C030DF0729F100D085E9CA
:10F4400092E0ADB7BEB712969C938E93119752DBA4
:10F450001092BC021092BB020F900F9044D013C0C8
:10F4600000D000D08CE992E0EDB7FEB792838183A3
:10F47000348323833FDB1092BC021092BB020F90B7
:10F480000F900F900F90DF91CF911F910F91FF90F0
:10F49000EF90DF90CF90BF90AF909F908F900895A6
:10F4A0008091B1029091B202181619067CF0109268
:10F4B000BC021092BB0200D08AEA92E0EDB7FEB720
:10F4C0009283818317DB0F900F900DC0089595B73D
:10F4D000292F2160813019F425BF926002C025BF19
:10F4E0009D7F95BF0895F8948091D00085FFFCCF53
:10F4F0001092D10080E48093D00010926F008FEFC3
:10F5000086BB109281001CBC1DBC80E0E0DF0C9427
:10F51000000008958A3310F48053089587530895A6
:10F5200081E08093B5020895FF920F931F93522FAD
:10F53000603020EE720721E0820720E0920708F099
:10F540006CC0F999FECF072F182F292F3327D80128
:10F550000091B3021091B402EFEF0F3F1E0719F1B3
:10F560000A171B0721F4209108082130E1F420E05C
:10F5700030E0322F212F102F0027E5E0FE2EF8017A
:10F5800020935B00F0925700E89521E103C020939F
:10F590005700E89507B606FCFACF2FEF3FEF309300
:10F5A000B4022093B30220910808222341F02130B5
:10F5B00009F035C081E180935700E89532C0209171
:10F5C000F207222371F12091B3023091B402EFEFE0
:10F5D0002F3F3E0799F423E0FB0180935B002093CB
:10F5E0005700E89521E103C020935700E89507B63E
:10F5F00006FCFACFB093B402A093B302F52FE0E07B
:10F600009F01240F311D41E00901FB0180935B0044
:10F6100040935700E895112404C087E003C086E0BA
:10F6200001C080E01F910F91FF900895FF920F930A
:10F630001F93CF93DF9390E06BD19091B5029130FF
:10F64000C1F19B3009F4DEC0803330F0282F2A53FB
:10F65000273010F0873420F081E08093B50252C14A
:10F66000963009F477C0973088F49330C9F194301C
:10F6700030F49130F1F0923009F03FC12AC094305B
:10F6800009F43FC0953009F038C15DC0993009F4E4
:10F690009CC09A3038F4973009F46CC0983009F067
:10F6A0002CC174C09A3009F499C09B3009F025C16F
:10F6B000A9C08A3309F023C183E08093090810921E
:10F6C000F6071092F5071092F4071092F30782E004
:10F6D00082C020DF8295807F8093F20783E07BC029
:10F6E00019DF9091F207980F9093F2079093070813
:10F6F000913110F484E06FC081E08093B50282E024
:10F7000001C108DF2091F5073091F60704E0220FD0
:10F71000331F0A95E1F7280F311D3093F607209328
:10F72000F5078091090880FD05C090910708920FA8
:10F7300090930708982F915090930908882309F017
:10F74000DEC085E048C0E6DE8295807F80930808B1
:10F7500086E041C0DFDE90910808980F909308087A
:10F7600080910708890F809307088091F20788230A
:10F7700051F127C0CFDEE091F307F091F407E95093
:10F78000F84F8295807F808388E025C0C091F30781
:10F79000D091F407BFDEFE01E950F84F9081980F39
:10F7A000908380910708890F809307082196D09352
:10F7B000F407C093F3078091F20790E0C817D907C8
:10F7C00010F487E008C089E006C0A4DE8295807F3F
:10F7D00080930E088AE08093B50291C09BDE9091E1
:10F7E0000E08980F90930E0880910708890F809358
:10F7F0000708882329F081E08093B50284E082C065
:10F800008BE0E9CF91E09093B5028A3019F08D300A
:10F8100009F077C0FFB6F894809108088130D1F1E3
:10F82000813038F0823009F44BC0833009F062C077
:10F830005FC0C7EFD7E000E010E080E022C0609139
:10F84000F5077091F60780E090E020910A0830916A
:10F850000B0840910C0850910D08620F731F841F14
:10F86000951F4881298160DE0E5F1F4F2091F507AB
:10F870003091F6072E5F3F4F3093F6072093F50740
:10F8800022962091F20730E002171307A4F588238F
:10F89000B1F231C06091F5077091F60780E090E019
:10F8A00020910A0830910B0840910C0850910D08E6
:10F8B000620F731F841F951F40E020E035DE1BC0E0
:10F8C0009091F70780E02091F807820F911DA0E04A
:10F8D000B0E014E0880F991FAA1FBB1F1A95D1F73B
:10F8E00080930A0890930B08A0930C08B0930D081E
:10F8F00080E001C086E0FFBE05C083E003C080E079
:10F9000001C085E0DF91CF911F910F91FF90089585
:10F910009111089581568A5108F4805285580895AE
:10F92000FB01DC0101900D920020E1F70895FB013D
:10F930009F01E8944230BCF04532ACF44A3029F4DF
:10F9400097FB1EF4909581959F4F642F77273AD0AF
:10F95000805D8A330CF0895D8193CB010097A9F714
:10F9600016F45DE251931082C9011CC0FB019F0196
:10F9700042306CF045325CF4642F772723D0805DF1
:10F980008A330CF0895D8193CB010097A9F710822F
:10F99000C90108C0F999FECF92BD81BDF89A992797
:10F9A00080B50895DC01FC01672F71917723E1F7A1
:10F9B000329704C07C916D9370836291AE17BF073C
:10F9C000C8F30895AA1BBB1B51E107C0AA1FBB1FA8
:10F9D000A617B70710F0A61BB70B881F991F5A95DB
:10F9E000A9F780959095BC01CD010895F894FFCFBB
:10F9F0000A0D426F6F740A0D00002018B1156F04D4
:10FA000000051A06FF071F080009000AFF0B19C1AD
:10FA100000C00DC232CAEECB05C412C612C70CE438
:10FA2000E5E2E3E0E1537672202533692E25336960
:10FA30002E2533692E2533690D0A005376723F0D4A
:10FA40000A006F63746574006176722E68657800D1
:10FA500046696C652025730D0A0045727220257376
:10FA60000D0A004572722025694025690D0A002E95
:10FA700000426C6F636B2025692C20256920657816
:10FA8000702E0D0A00646F6E650D0A0045727220BB
:10FA9000547970652025690D0A00546F75740D0A3C
:06FAA000003075FFFF01BC
:040000031000E00009
:00000001FF
